:100000000C9416160C9447160C9447160C9447162D
:100010000C9447160C9447160C9447160C944716EC
:100020000C9447160C9447160C9447160C944716DC
:100030000C9447160C9447160C9447160C944716CC
:100040000C9447160C9469A60C9447160C9447160A
:100050000C9447160C9447160C94476F0C94AA6D99
:100060000C9447160C94AA6C0C94816C0C94471653
:100070000C9447160C9447160C9447160C9447168C
:100080000C9447160C9447160C9447160C9447167C
:100090000C9447160C9447160C9447160C9447166C
:1000A0000C9447160C9447160C9447160C9447165C
:1000B0000C9447160C9447160C9447160C9447164C
:1000C0000C9447160C9447160C9447160C94586CD5
:1000D0000C942F6C0C9447160C9447160C944716EE
:1000E0000C944716B669C669C9691D6AF969166A2A
:1000F000FF69026AFC690E6A886B8B6B7A6B7E6B98
:10010000846BC26B8F6B936B996B9D6BA16BA76BB1
:10011000AB6BAF6BC26BB56BB96BBD6BB579BA79B5
:10012000BF79C979D3794C7ADD79E579ED79F779B9
:10013000017A0B7A1A7A247A4C7A2E7A387A427AB1
:10014000084AD73B3BCE016E84BCBFFDC12F3D6C3E
:1001500074319ABD56833DDA3D00C77F11BED9E4A4
:10016000BB4C3E916BAAAABE000000803F05A84C84
:10017000CDB2D44EB93836A9020C50B99186880850
:100180003CA6AAAA2ABE000000803F004E414E496C
:100190004E495459494E46CDCCCC3D0AD7233C1745
:1001A000B7D13877CC2B329595E6241FB14F0A0092
:1001B0000020410000C84200401C4620BCBE4CCA82
:1001C0001B0E5AAEC59D7447393000473120452D6E
:1001D000312046313230004739310047393000474D
:1001E0003120453120463132300047393100473126
:1001F000205A2D302E352046313030300047312006
:100200005A302E3520463130303000473120592DBC
:1002100034204631303030004731205934204631C7
:1002200030303000473120582D34204631303030C6
:1002300000473120583420463130303000496E7646
:10024000616C6964206B65792076616C756520004E
:10025000496E76616C6964206B65792076616C7596
:10026000652000496E76616C6964206B6579207643
:10027000616C75652000496E76616C6964206B6500
:10028000792076616C756520004930004D65617399
:10029000757265205A2D6865696768740047323841
:1002A00020583020593000496E76616C6964206BAB
:1002B00065792076616C756520004D3432302053AD
:1002C00031004D35303000496E76616C6964206BC9
:1002D00065792076616C75652000496E76616C6980
:1002E00064206B65792076616C75652000496E76B7
:1002F000616C6964206B65792076616C756520009E
:10030000526563656976696E67204672616D652026
:1003100028416363656C65726174696F6E20536513
:100320007474696E67732900496E76616C69642024
:100330006B65792076616C7565200052656365692F
:1003400076696E67204672616D652028416363653A
:100350006C65726174696F6E2053657474696E6741
:10036000732900496E76616C6964206B657920762B
:10037000616C75652000526563656976696E6720FA
:100380004672616D652028466565647261746520FA
:1003900053657474696E67732900496E76616C6980
:1003A00064206B65792076616C7565200052656309
:1003B000656976696E67204672616D6520285374A1
:1003C0006570732053657474696E67732900496E94
:1003D00076616C6964206B65792076616C75652047
:1003E00000526563656976696E67204672616D6566
:1003F00020285049442053657474696E677329003E
:10040000496E76616C6964206B65792076616C75E4
:10041000652000526563656976696E672046726182
:100420006D6520285072696E742053657474696E0E
:1004300067732900496E76616C6964206B65792069
:1004400076616C75652000496E76616C6964206B1D
:1004500065792076616C75652000496E76616C69FE
:1004600064206B65792076616C75652000496E7635
:10047000616C6964206B65792076616C756520001C
:10048000496E76616C6964206B65792076616C7564
:10049000652000496E76616C6964206B6579207611
:1004A000616C75652000496E76616C6964206B65CE
:1004B000792076616C7565200045302043382055E1
:1004C00031004D3330332053004D3130362053321C
:1004D000353500496E76616C6964206B65792076EC
:1004E000616C75652000526563656976696E672089
:1004F0004672616D6520284D65617375726573295B
:1005000000496E76616C6964206B65792076616C58
:1005100075652000473932204530004D38320041A2
:10052000646A7573743A206F6C64203D20002C203F
:100530006578706563746564203D20002C206D65CE
:10054000617375726564203D20002C206E657720F4
:100550003D2000526563656976696E672046726169
:100560006D6520284D656173757265732900486556
:100570006174696E6720746865206578747275644B
:1005800065722E2E2E00496E76616C6964206B6553
:10059000792076616C756520004731205A33302010
:1005A0004632303030004731205A3020463130302A
:1005B000300047312058313030205931303020461A
:1005C00036303030004731205A313020463230301A
:1005D00030004C6576656C2073746570203500477B
:1005E00031205A30204631303030004731205833E6
:1005F00030205931373020463630303000473120F6
:100600005A3130204632303030004C6576656C20EF
:10061000737465702034004731205A3020463130E1
:1006200030300047312058313730205933302046A0
:1006300036303030004731205A31302046323030A9
:1006400030004C6576656C2073746570203300470C
:1006500031205A3020463130303000473120583177
:10066000373020593137302046363030300047316E
:10067000205A3130204632303030004C6576656C7F
:1006800020737465702032004731205A3020463183
:100690003030300047312058333020593330204635
:1006A00036303030004731205A3130204632303039
:1006B00030004C6576656C2073746570203100479E
:1006C00032380047393000486F6D696E672E2E2E24
:1006D00000496E76616C6964206B65792076616C87
:1006E000756520004D35303200496E76616C696465
:1006F000206B65792076616C75652000496E7661A6
:100700006C6964206B65792076616C756520004D9D
:1007100038340047323800473238205A30004732E8
:10072000382059300047323820583000496E766101
:100730006C6964206B65792076616C756520004377
:100740006F6F6C646F776E004D3134302053004D05
:10075000313034205300526563656976696E6720D5
:100760004672616D65202850726573657473290047
:1007700050726568656174205374617274005072C0
:100780006568656174207061676500496E76616CAB
:100790006964206B65792076616C75652000496E0F
:1007A00076616C6964206B65792076616C75652073
:1007B000004E6F20436F6E74696E756520616374BF
:1007C000696F6E20646566696E6564004E6F2042D5
:1007D00061636B20616374696F6E20646566696E26
:1007E000656400496E76616C6964206B657920767A
:1007F000616C756520002F2F616374696F6E3A72AA
:100800006573756D650A004D323400526573756D00
:1008100065207072696E74696E6700526573756DDC
:1008200065205072696E74002F2F616374696F6E5A
:100830003A70617573650A004D313235005061754B
:100840007365207072696E74696E672E2E2E00506B
:100850006175736520555342205072696E74002F84
:100860002F616374696F6E3A646973636F6E6E654E
:1008700063740A0053746F7020555342205072699C
:100880006E7400496E76616C6964206B65792076C0
:10089000616C756520004D323400526573756D656D
:1008A000207072696E74696E6700526573756D654C
:1008B000205072696E74004D31323500506175738D
:1008C00065207072696E74696E672E2E2E005061FD
:1008D000757365205072696E740053746F70205385
:1008E00044205072696E7400496E76616C696420B0
:1008F0006B65792076616C7565200054727920747F
:100900006F206163636573732074686520534420AE
:10091000636172642E2E2E0053696C656E742042E2
:10092000757A7A00496E76616C69642061637469D6
:100930006F6E20003E3E3E200020776F7264732C65
:1009400020416374696F6E203D20002C204B657937
:1009500056616C7565203D200072656164696E6743
:1009600020696E636F6D696E67204672616D650008
:10097000434F4D4D554E49434154494F4E0044520B
:100980005952554E004552524F525300494E464F10
:10099000004543484F00496E76616C696420492DDB
:1009A000636F6465206E756D6265722000536C65BF
:1009B00065702E2E2E004E6F206D6F76652E0045D1
:1009C0006E642066696C65206C6973740A00426508
:1009D00067696E2066696C65206C6973740A004DE6
:1009E000313235005344207072696E74696E67202D
:1009F0006279746520004E6F7420534420707269D0
:100A00006E74696E670A005072696E742074696D45
:100A1000653A2000457874727564657220256920F6
:100A200025730057616E68616F204475706C69634F
:100A300061746F7220693320506C75732072656128
:100A400064792E0091098C0985097E0970096F6609
:100A5000660044454255473A004D3131332053003A
:100A60006F6B0048656174696E6720646F6E652EF8
:100A70000020573A004578747275646572202569C4
:100A80002025730057616E68616F204475706C6932
:100A90006361746F7220693320506C7573207265C6
:100AA0006164792E0042656420646F6E652E0020BB
:100AB000573A004265642048656174696E672E008C
:100AC000544845524D414C5F50524F544543544950
:100AD0004F4E00454D455247454E43595F50415298
:100AE00053455200434153455F4C494748545F4288
:100AF00052494748544E45535300544F47474C457D
:100B00005F4C494748545300534F46545741524550
:100B10005F504F574552004255494C445F50455233
:100B200043454E54004C4556454C494E475F444161
:100B30005441005A5F50524F4245004155544F4C6A
:100B40004556454C005052494E545F4A4F42005062
:100B5000524F4752455353004155544F5245504F01
:100B600052545F54454D5000564F4C554D455452CC
:100B7000494300454550524F4D0053455249414C61
:100B80005F584F4E5F584F4646004649524D5741B9
:100B900052455F4E414D453A4D61726C696E203150
:100BA0002E312E38202841445669332B2B20332EEA
:100BB000302E302920534F555243455F434F444513
:100BC0005F55524C3A68747470733A2F2F6769748A
:100BD0006875622E636F6D2F616E647269766574DD
:100BE0002F414456693370702D4D61726C696E20CF
:100BF00050524F544F434F4C5F56455253494F4EFE
:100C00003A312E30204D414348494E455F545950AA
:100C1000453A57616E68616F204475706C69636115
:100C2000746F7220693320506C757320455854528C
:100C3000554445525F434F554E543A31205555491E
:100C4000443A34346232663564362D653765342D66
:100C5000343762662D626538312D63326136623415
:100C60006663373937350A002F2F20007A5F6D69A8
:100C70006E3A2000795F6D696E3A2000785F6D6989
:100C80006E3A20005265706F7274696E6720656EEF
:100C90006473746F70207374617475730A005365A4
:100CA0007474696E672054726176656C2041636369
:100CB000656C65726174696F6E3A20005365747477
:100CC000696E672052657472616374204163636565
:100CD0006C65726174696F6E3A2000536574746953
:100CE0006E67205072696E7420416363656C657233
:100CF0006174696F6E3A200053657474696E672081
:100D00005072696E7420616E642054726176656CF5
:100D100020416363656C65726174696F6E3A20008F
:100D2000205A00205900580020204D61783A2000B8
:100D3000205A00205900580020204D696E3A2000AA
:100D40004F6E20004F666600536F667420656E64B8
:100D500073746F70733A200000013D3E3C36FF40D3
:100D6000413F18FF43454217FFFFFF0305FFFFFF09
:100D70003A3B39FFFF034404FF37FFFFFFFFFFFF4C
:100D800020643A0020693A0020703A0043290A00A2
:100D900061626C656420286D696E2074656D7020D9
:100DA00000436F6C642065787472756465732061AC
:100DB000726520004D313036205330004175746F1C
:100DC000205049442066696E697368656400236435
:100DD0006566696E65202044454641554C545F4B1D
:100DE00064200023646566696E65202044454641A1
:100DF000554C545F4B69200023646566696E65201D
:100E00002044454641554C545F4B702000504944A6
:100E1000204175746F74756E652066696E697368BC
:100E20006564212050757420746865206C6173744A
:100E3000204B702C204B6920616E64204B64206332
:100E40006F6E7374616E74732066726F6D2062656D
:100E50006C6F7720696E746F20436F6E666967757B
:100E6000726174696F6E2E680A00504944204175A2
:100E7000746F74756E65206661696C656421207499
:100E8000696D656F75740A005468652074656D70CE
:100E90006572617475726520686173206465766936
:100EA0006174656420746F6F206D756368005468A9
:100EB00065726D616C2052756E617761790048656D
:100EC0006174696E67206661696C6564004865617C
:100ED00074696E67206661696C65640050494420DE
:100EE0004175746F74756E65206661696C65642107
:100EF0002054656D706572617475726520746F6FD2
:100F000020686967680A00204B643A2000204B691A
:100F10003A2000204B703A20000A20436C61737322
:100F2000696320504944200A002054753A2000206B
:100F30004B753A2000206D61783A2000206D696E73
:100F40003A200020643A200020626961733A200050
:100F50004F666673657473206170706C69656400B8
:100F60004572723A20546F6F206661722100546F8F
:100F70006F206661722066726F6D207265666572A1
:100F8000656E636520706F696E740A004E6F206332
:100F9000617365206C696768740A004163746976DF
:100FA000652045787472756465723A2000556E6BE1
:100FB0006E6F776E20636F6D6D616E643A202200F4
:100FC0002569730025696D202569730025696820EE
:100FD00025696D20256973002569642025696820CD
:100FE00025696D20256973002569792025696420AC
:100FF0002569682025696D20256973004C696E6537
:10100000204E756D626572206973206E6F74204C7E
:10101000617374204C696E65204E756D6265722B2C
:10102000312C204C617374204C696E653A2000535A
:10103000544F505045442E20005072696E746572B2
:101040002073746F707065642064756520746F2000
:101050006572726F72732E204669782074686520FD
:101060006572726F7220616E6420757365204D39F0
:10107000393920746F20726573746172742E202860
:1010800054656D7065726174757265206973207244
:10109000657365742E2053657420697420616674CD
:1010A00065722072657374617274696E67290A00D3
:1010B0004E6F20436865636B73756D207769746844
:1010C000206C696E65206E756D6265722C204C61B6
:1010D0007374204C696E653A2000636865636B73B6
:1010E000756D206D69736D617463682C204C61733C
:1010F00074204C696E653A20004D313130004D331B
:10110000310053442072656164206572726F720A07
:1011100000446F6E65207072696E74696E67206638
:10112000696C650A0020496E76616C696420657897
:1011300074727564657220000000000000000000F9
:101140000000000000004843000048430000344312
:1011500020746F6F206C6F6E672065787472757382
:10116000696F6E2070726576656E7465640A002022
:10117000636F6C6420657874727573696F6E20702C
:10118000726576656E7465640A0047322F473320B6
:1011900062616420706172616D65746572730A00CA
:1011A00053686F77207061676520005265616469DC
:1011B0006E672050696374757265494400437572A7
:1011C00072656E74207061676520696E6465782051
:1011D0003D20004E6F204261636B20706167652087
:1011E000646566696E6564004E6F20466F72776154
:1011F0007264207061676520646566696E6564006D
:101200004C6F61642F556E6C6F61642053746F7006
:1012100000473932204530004D383200576169743B
:1012200020756E74696C207468652066696C616DE8
:10123000656E7420636F6D6573206F75742E2E2E2E
:101240000047312045312046313230004C6F616417
:101250002046696C616D656E740047312045312010
:1012600046313230005761697420756E74696C20A4
:101270007468652066696C616D656E7420636F6D5E
:101280006573206F75742E2E2E00473120452D3149
:10129000204631323000556E6C6F61642046696CB7
:1012A000616D656E7400473120452D312046313225
:1012B00030004C6576656C696E6720486F6D6564BB
:1012C0002C2073746172742070726F636573730085
:1012D0004731204500473932204530004D38330032
:1012E0004731205A32302046323430005761697419
:1012F00020756E74696C20746865206578747275E9
:1013000073696F6E2069732066696E6973686564BE
:101310002E2E2E00473932204530004D38320046FF
:10132000696C616D656E742065787472756465644E
:1013300020004B494C4C45442E2000202D20496E66
:1013400076616C6964206578747275646572206E6C
:10135000756D62657220210A002020506C616E6EEE
:10136000657242756666657242797465733A2000EB
:101370002046726565204D656D6F72793A20004395
:101380006F6D70696C65643A204D61792032372049
:10139000323031380A00207C20417574686F723A0F
:1013A0002028616E647269766574290A00323031D2
:1013B000382D30352D32352031323A303000204C46
:1013C00061737420557064617465643A2000312E35
:1013D000312E380A004D61726C696E0020536F66C1
:1013E00074776172652052657365740A00205761D5
:1013F000746368646F672052657365740A002042E5
:10140000726F776E206F75742052657365740A0071
:101410002045787465726E616C2052657365740A3C
:1014200000506F77657255700A0073746172740AA8
:10143000006572726F722077726974696E672074CA
:101440006F2066696C650A00205A3A0020593A00FC
:1014500020583A00656E6473746F70732068697405
:101460003A2000446F6E6520736176696E6720666E
:10147000696C652E0A004D32390046696C616D65F4
:101480006E7420696E7365727465642E2E005072DE
:10149000696E74696E6700496E736572742066695F
:1014A0006C616D656E7420616E642070726573731B
:1014B00020636F6E74696E75652E2E2E00506175F7
:1014C00073696E672E2E2E00556E6B6E6F776E20D1
:1014D000416476616E63656450617573654D6573D3
:1014E000736167653A200057616974696E672066A9
:1014F0006F7220686561742E2E2E00526573756DB3
:10150000696E67207072696E742E2E2E005072659F
:10151000737320636F6E74696E756520746F2068D5
:1015200065617400457874727564696E6720736FC5
:101530006D652066696C616D656E742E2E2E00558A
:101540006E6C6F6164696E672066696C616D656E53
:10155000742E2E2E004D31313720004D31313700A1
:1015600053544154555320563A200053696C656ECC
:10157000742042757A7A005354415455533A2000EE
:101580005354415455532050474D3A200044617400
:1015900061207472756E6361746564004461746186
:1015A000207472756E6361746564003E3E3E200077
:1015B0002062797465732C20636D64203D20003CAB
:1015C0003C3C20002062797465732E00496E766180
:1015D0006C696420616D6F756E74206F662062792E
:1015E000746573207265636569766564004461742F
:1015F0006120746F20626520726563656976656439
:1016000020697320746F6F2062696720666F722093
:10161000746865204672616D6520627566666572E4
:1016200020736F20736B697020697400496E766156
:101630006C696420686561646572207768656E20F6
:10164000726563656976696E672061204672616DB7
:10165000653A200047617262616765207265616466
:101660003A200054727920746F20726561642061A1
:1016700020627974652061667465722074686520E3
:10168000656E64206F662064617461005472792015
:10169000746F2072656164206120776F72642061CD
:1016A000667465722074686520656E64206F6620BC
:1016B000646174610070012C0190012701B0012266
:1016C00001C0011D01F00118011002130130020ECA
:1016D000016002090190020401C002FF000003FA48
:1016E000004003F5008003F000D003EB002004E687
:1016F000007004E100E004DC004005D700C005D222
:10170000004006CD00D006C8008007C3003008BEE8
:1017100000F008B900C009B400B00AAF00B00BAACD
:1017200000D00CA500000EA000500F9B00C010962A
:10173000005012910000148C00C0158700B0178271
:1017400000B0197D00D01B7800001E730040206E91
:101750000090226900F024640040275F0090295A1D
:1017600000E02B5500102E500020304B0010324668
:1017700000E033410090353C0010373700703832BC
:1017800000A0392D00B03A2800A03B2300603C1E89
:1017900000103D1900903D1400103E0F00703E0AED
:1017A00000C03E0500003F0000403FFBFF803FF6C9
:1017B000FFC03FF1FF5468652074656D706572610C
:1017C00074757265206861732064657669617465FB
:1017D0006420746F6F206D75636800546865726D66
:1017E000616C2052756E6177617900202F00204274
:1017F000403A0020403A0000002100240027002A3F
:10180000002D003000330001010000040107010A2F
:101810000100002200250028002B002E003100349A
:101820000002010000050108010B01000020002357
:1018300000260029002C002F0032000001000003C8
:101840000106010901050505050705080808080244
:101850000202020A0A080804040404010101010149
:101860000101010303030303030303040707070C38
:101870000C0C0C0C0C0C0C020202020606060606EE
:101880000606060B0B0B0B0B0B0B0B01021020209B
:1018900008081020401020408002010201080402C4
:1018A000010102040810204080804020100804023A
:1018B0000180040201804020100804020108040293
:1018C0000101020408102040800102040810204099
:1018D0008000000A0B02090C0D0E0807030401002A
:1018E00000000000000000000000000000000000F8
:1018F00000000000000000000000000000121110B5
:1019000000000000000000000000000000000000D7
:101910000000000000000043616E6E6F74206F7065
:10192000656E207375626469722000656E717565FD
:101930007565696E672022006563686F3A004669C5
:101940006C652064656C657465643A0044656C651B
:1019500074696F6E206661696C65642C2046696CE1
:10196000653A20006F70656E206661696C65642C55
:101970002046696C653A200050726F746563746527
:10198000642050696E0A006D0046696C616D656E79
:101990007420757365643A200053746174733A203F
:1019A000002C204C6F6E67657374206A6F623A205A
:1019B00000546F74616C2074696D653A2000537433
:1019C0006174733A20002C204661696C65643A208A
:1019D000002C2046696E69736865643A2000507275
:1019E000696E74733A200053746174733A20002056
:1019F0005A3A0020593A0020436F756E7420583AC5
:101A00000020453A00205A3A0020593A00583A003E
:101A10003A004361703A0044617461206C656E67FE
:101A2000746820696E20726573706F6E736520280C
:101A3000002920646F6573206E6F7420636F72726B
:101A40006573706F6E6420746F2072657175657355
:101A500074202800290052656769737465722069D3
:101A60006E20726573706F6E736520280029206484
:101A70006F6573206E6F7420636F72726573706F21
:101A80006E6420746F207265717565737420280010
:101A90002900436F6D6D616E6420696E20726573FD
:101AA000706F6E73652028002920646F6573206E47
:101AB0006F7420636F72726573706F6E6420746FE1
:101AC0002072657175657374202800290044617463
:101AD00061206C656E67746820696E207265737032
:101AE0006F6E736520280052656769737465722094
:101AF000696E20726573706F6E736520280029000F
:101B0000436F6D6D616E6420696E20726573706FD6
:101B10006E73652028002920646F6573206E6F74D2
:101B200020636F72726573706F6E6420746F2072C1
:101B300065717565737420280029004572726F7293
:101B40002077726974696E6720746F204545505222
:101B50004F4D210A00290A002062797465733B20E9
:101B6000637263200053657474696E6773205374E5
:101B70006F7265642028004D3530300047393000E1
:101B80004739310053442063617264206F6B0A004F
:101B90006F70656E526F6F74206661696C65640A60
:101BA00000766F6C756D652E696E6974206661696B
:101BB0006C65640A00534420696E6974206661692B
:101BC0006C0A004D3234004D3233202573006175AC
:101BD000746F25692E670057726974696E67207487
:101BE0006F2066696C653A20006F70656E206661D3
:101BF000696C65642C2046696C653A20006F7065DD
:101C00006E206661696C65642C2046696C653A20BB
:101C10000046696C652073656C65637465640A00D1
:101C20002053697A653A200046696C65206F7065BB
:101C30006E65643A20006F70656E206661696C6540
:101C4000642C2046696C653A20002066696C653A10
:101C50002000646F696E67006672657368004E6F7E
:101C6000772000454E4420535542524F5554494E1B
:101C7000450A002220706F73002220706172656E29
:101C8000743A2200535542524F5554494E45204311
:101C9000414C4C207461726765743A22004B494C88
:101CA0004C45442E2000747279696E6720746F2051
:101CB00063616C6C207375622D67636F6465206669
:101CC000696C6573207769746820746F6F206D612B
:101CD0006E79206C6576656C732E204D4158206CB2
:101CE0006576656C2069733A004572726F723A00CE
:101CF00020746F6F206C6F6E6720657874727573D7
:101D0000696F6E2070726576656E7465640A002076
:101D1000636F6C6420657874727573696F6E207080
:101D2000726576656E7465640A00627573793A202F
:101D300070617573656420666F7220696E7075746A
:101D40000A00627573793A20706175736564206664
:101D50006F7220757365720A00627573793A20702C
:101D6000726F63657373696E670A004B494C4C452B
:101D7000442E20004B494C4C2063617573656420F0
:101D8000627920746F6F206D75636820696E61637E
:101D9000746976652074696D65202D206375727293
:101DA000656E7420636F6D6D616E643A20002F2F35
:101DB000616374696F6E3A706F7765726F66660AF9
:101DC000005072696E7465722068616C7465642E6F
:101DD000206B696C6C28292063616C6C6564210A36
:101DE00000000000000000000000000000000048AB
:101DF000420000484200008040000000005761722D
:101E00006E696E673A20486F6D696E672042756D26
:101E1000702044697669736F72203C20310A000299
:101E200002040000A0400000A040000000400000AC
:101E300048430000484300003443FFFFFF4D363065
:101E40003020486F74656E6420746F6F20636F6C10
:101E50006420746F206368616E67652066696C61D9
:101E60006D656E740A0024F4D43050C38E20C2A273
:101E70004017828B7011127A910D816CD90AA8617A
:101E8000E108C7586607615143061E4B5D05C14511
:101E9000A7041A411104093D9803713931034036F2
:101EA000DB0265339102D4305402802E1D02632C74
:101EB000EE01752AC501B028A001102781018F25E8
:101EC00064012B244B01E0223401AC211F018D2041
:101ED0000D01801FFC00841EED00971DDF00B81C63
:101EE000D200E61BC600201BBC00641AB200B21967
:101EF000A8000A19A0006A189900D117910040178C
:101F00008B00B516840031167E00B31579003A15A2
:101F10007300C7146F0058146A00EE13660088132C
:101F2000630025135E00C7125B006C125700151288
:101F30005400C111510070114F0021114B00D610F7
:101F400049008D1047004610440002104200C00FA7
:101F50004000800F3E00420F3C00060F3B00CB0EBE
:101F60003800930E37005C0E3500270E3400F30D59
:101F70003200C10D3100900D3000600D2E00320D89
:101F80002D00050D2C00D90C2B00AE0C2900850C62
:101F900029005C0C2700350C27000E0C2600E80BEE
:101FA0002400C40B2400A00B23007D0B23005A0B3C
:101FB0002100390B2100180B2000F80A1F00D90A54
:101FC0001E00BB0A1E009D0A1D00800A1D00630A38
:101FD0001C00470A1B002C0A1B00110A1A00F709F3
:101FE0001A00DD091900C4091900AB09190092098A
:101FF00017007B091800630917004C091600360901
:102000001600200916000A091500F5081500E00859
:102010001400CC081400B8081400A4081400900898
:1020200013007D0812006B081300580812004608C0
:1020300012003408110023081100120811000108D1
:102040001100F0071000E0071000D0071000C007D3
:102050001000B0070F00A107100091070E008307C2
:102060000F0074070F0065070E0057070E004907A1
:102070000E003B070D002E070E0020070D00130772
:102080000D0006070D00F9060C00ED060D00E00638
:102090000C00D4060C00C8060C00BC060C00B006F0
:1020A0000C00A4060B0099060C008D060B0082069E
:1020B0000B0077060B006C060B0061060A00570642
:1020C0000B004C060A0042060A0038060A002E06DB
:1020D0000A0024060A001A060A001006090007066C
:1020E0000A00FD050900F4050900EB050900E205F9
:1020F0000900D9050900D0050900C7050900BE057A
:102100000900B5050800AD050800A50509009C05F6
:102110000800940508008C050800840508007C056B
:102120000800740508006C050700650508005D05DA
:102130000700560508004E05070047050700400543
:10214000080038050700310507002A0507002305A8
:1021500007001C050600160507000F050700080507
:10216000060002050700FB040600F5040700EE0464
:102170000600E8040600E2040700DB040600D504BC
:102180000600CF040600C9040600C3040600BD040F
:102190000600B7040600B1040500AC040600A6045E
:1021A0000600A00405009B040600950405009004A9
:1021B00006008A04050085040500800406007A04F0
:1021C000050075040500700405006B040500660435
:1021D0000500610405005C04050057040500520475
:1021E00005004D04050048040500430405003E04B5
:1021F00004003A04050035040500300404002C04F2
:10220000050027040400230405001E0404001A042A
:10221000040016040500110404000D040400090460
:1022200005000404040000040400FC030400F80397
:102230000400F4030400F0030400EC030400E803CA
:102240000400E4030400E0030400DC030400D803FA
:102250000400D4030400D0030400CC030400C8032A
:102260000300C503030024F404D9201BC40C5C0E36
:102270009804C4095F0265077101F405F900FB04C5
:10228000B30048048700C1036900580355000303E5
:102290004500BE023A008402310053022A0029029E
:1022A000250004022000E4011C00C8011900AF0150
:1022B00017009801140084011300710110006101DE
:1022C000100051010E0043010D0036010B002B01DF
:1022D0000B0020010B00150109000C01090003018E
:1022E0000800FB000800F3000800EB000700E40012
:1022F0000600DE000600D8000600D2000600CC0072
:102300000500C7000500C2000500BD000400B900BB
:102310000400B5000400B1000400AD000400A900F1
:102320000400A5000300A20003009F0004009B001E
:102330000300980003009500020093000300900042
:1023400003008D0002008B0003008800020086005D
:10235000020084000300810002007F0002007D0073
:1023600002007B0002007900020077000100760085
:1023700002007400020072000100710002006F0090
:1023800002006D0001006C0002006A00010069009B
:1023900002006700010066000100650001006400A2
:1023A00002006200010061000100600001005F00A6
:1023B00002005D0001005C0001005B0001005A00AA
:1023C00001005900010058000100570001005600AB
:1023D00001005500010054000100530000005300AB
:1023E00001005200010051000100500001004F00A7
:1023F00001004E0000004E0001004D0001004C00A5
:1024000001004B0000004B0001004A0001004900A0
:10241000010048000000480001004700010046009C
:102420000000460001004500000045000100440096
:102430000100430000004300010042000000420090
:1024400001004100000041000100400001003F0088
:1024500000003F0001003E0000003E0001003D0082
:1024600000003D0001003C0000003C0000003C007A
:1024700001003B0000003B0001003A0000003A0070
:102480000100390000003900010038000000380068
:10249000000038000100370000003700010036005E
:1024A0000000360000003600010035000000350055
:1024B000000035000100340000003400000034004A
:1024C000010033000000330000003300010032003F
:1024D0000000320000003200010031000000310035
:1024E000000031000100300000003000000030002A
:1024F00001002F0000002F0000002F0000002F001F
:1025000001002E0000002E0000002E0001002D0012
:1025100000002D0000002D0000002D0001002C0007
:1025200000002C0000002C0000002C0001002B00FB
:1025300000002B0000002B0000002B0001002A00EF
:1025400000002A0000002A0000002A0001002900E3
:1025500000002900000029000000290000002900D7
:1025600001002800000028000000280000002800CA
:1025700000002800010027000000270000002700BD
:1025800000002700000027000100260000002600B0
:1025900000002600000026000000260001002500A3
:1025A0000000250000002500000025000000250097
:1025B0000000250001002400000024000000240089
:1025C000000024000000240001002300000023007C
:1025D000000023000000230000002300000023006F
:1025E0000000230001002200000022000000220061
:1025F0000000220000002200000022000100210053
:102600000000210000002100000021000000210046
:102610000000210000002100010020000000200037
:10262000000020000000200000002000000020002A
:10263000000020000000200001001F0000001F001B
:1026400000001F0000001F0000001F0000001F000E
:1026500000001F0001001E0000001E0000001E0000
:1026600000001E0000004D383420582059205A2008
:10267000450048617264636F646564204465666107
:10268000756C742053657474696E6773204C6F6148
:102690006465640A00E8030000E8030000640000C9
:1026A00000E80300000000E1430000E1430000A057
:1026B000400000C8410000A2420000A2420040C801
:1026C000439A99BC4220440020490020204D3330D9
:1026D000312050005049442073657474696E6773EB
:1026E0003A0A00205A0020590020204D323036206E
:1026F0005800486F6D65206F66667365743A0A000E
:10270000204500205A002059002058002042002077
:10271000540020204D323035205300416476616EE4
:102720006365643A20533C6D696E5F6665656472EB
:102730006174653E20543C6D696E5F7472617665AC
:102740006C5F66656564726174653E20423C6D69CC
:102750006E5F7365676D656E745F74696D655F75D7
:10276000733E20583C6D61785F78795F6A65726B63
:102770003E205A3C6D61785F7A5F6A65726B3E20DD
:10278000453C6D61785F655F6A65726B3E0A00204B
:10279000540020520020204D32303420500041633C
:1027A00063656C65726174696F6E2028756E6974FB
:1027B000732F7332293A20503C7072696E745F61D6
:1027C0006363656C3E20523C726574726163745F32
:1027D000616363656C3E20543C74726176656C5F26
:1027E000616363656C3E0A00204500205A00205951
:1027F0000020204D3230312058004D6178696D75D0
:102800006D20416363656C65726174696F6E202829
:10281000756E6974732F7332293A0A0020450020BF
:102820005A0020590020204D3230332058004D618D
:1028300078696D756D206665656472617465732075
:1028400028756E6974732F73293A0A002045002099
:102850005A0020590020204D393220580053746509
:1028600070732070657220756E69743A0A002020BA
:102870004D3230302044300A0020204D323030209C
:1028800044002044697361626C65640A0046696CA7
:10289000616D656E742073657474696E67733A0058
:1028A0002020473231202020203B20556E69747350
:1028B00020696E206D6D0A007C3C3E5E2B3D3F2FF3
:1028C0005B5D3B2C2A225C00202863616C63756C85
:1028D0006174656429210A0020213D20004545508E
:1028E000524F4D20435243206D69736D617463688C
:1028F000202D202873746F726564292000290A0036
:102900002062797465733B206372632000207374C6
:102910006F7265642073657474696E677320726585
:1029200074726965766564202800204D61726C6957
:102930006E3D563439290A0028454550524F4D3DC9
:1029400000454550524F4D2076657273696F6E2079
:102950006D69736D61746368200052656164696EAE
:102960006720546F75636850616E656C466C616773
:10297000005761697420756E74696C2074686520F5
:102980007461726765742074656D7020697320725C
:102990006561636865642E2E2E004739322045300C
:1029A000004D38330041646A7573743A206F6C646B
:1029B000203D20002C206578706563746564203D9F
:1029C00020002C206D65617375726564203D2000C8
:1029D0002C206E6577203D2000526563656976691D
:1029E0006E67204672616D65202854617267657458
:1029F0002054656D706572617475726529000D0AE9
:102A00005553422062617564726174652073776901
:102A1000746368656420746F200053776974636819
:102A20002055534220626175647261746520746F31
:102A300020006265640A002C2073797374656D2030
:102A400073746F7070656421204865617465725F8E
:102A500049443A20004D6178696D756D2062656466
:102A60002074656D70657261747572652065786338
:102A70006565646564004D6178696D756D20746588
:102A80006D706572617475726520657863656564E3
:102A90006564004D415854454D5020747269676714
:102AA00065726564004D696E696D756D206265645F
:102AB0002074656D706572617475726520657863E8
:102AC0006565646564004D696E696D756D2074653A
:102AD0006D70657261747572652065786365656493
:102AE0006564004D494E54454D50207472696767C6
:102AF000657265640048656174696E672066616926
:102B00006C65640048656174696E67206661696C14
:102B100065640048656174696E67206661696C650B
:102B2000640048656174696E67206661696C6564FC
:102B3000002066697273740A005A005900580048F0
:102B40006F6D65200053544154555320563A200070
:102B500053706F6E736F726564206279204A6F687C
:102B60006E617468616E204368616D6265726C614C
:102B7000696E004261736564206F6E20414456693E
:102B8000332B2B2C20436F7079726967687420286F
:102B9000432920323031372053656261737469658F
:102BA0006E20416E64726976657400526563656972
:102BB00076696E67204672616D6520284D65617388
:102BC00075726573290041445669332B2B204C43A1
:102BD000442076657273696F6E203D20004C43443B
:102BE000204669726D776172652072617720766523
:102BF0007273696F6E203D2000556E6B6E6F776E3D
:102C000000526563656976696E67204672616D651D
:102C1000202856657273696F6E2900526573656E60
:102C2000643A20006F6B0000EED4ADD411241FBEB7
:102C3000CFEFD1E2DEBFCDBF00E00CBF13E0A0E0DC
:102C4000B2E0ECE1FDEC01E00BBF02C007900D9299
:102C5000A03AB107D9F724E1A0EAB3E001C01D9280
:102C6000AA3AB207E1F716E1C5E1D6E100E006C0F5
:102C700021970109802FFE010E9413E5C431D1077D
:102C800080E00807A9F70E943FD00C947DE60C94E1
:102C900000004F925F926F927F928F929F92AF92BD
:102CA000BF92CF92DF92EF92FF920F931F93CF9339
:102CB000DF93CDB7DEB7CD52D3400FB6F894DEBF69
:102CC0000FBECDBFC050DD4F1882C050D34084EF3F
:102CD00096E00E94946A039714F40C94BF2F61E06D
:102CE000CE018F5F9D4F0E94306481110CC069E559
:102CF00079E0CE0101960E944062CE0101960E94C9
:102D00003B620C94BF2F8091340B81110BC068E1A2
:102D100079E0CE0101960E944062CE0101960E94A8
:102D20003B6208C04AE050E060E070E08DE19BE06B
:102D30000E94BD66CF5DDC4F1882C152D340C15E98
:102D4000DC4F19821882CF51D3401982BE016F5FC8
:102D50007F4FCE018F5F9D4F0E94B3631A8219820D
:102D6000BE016F5F7F4FCE018F5F9D4F0E94E86372
:102D7000C980DA80BE016F5D7C4FCE018F5F9D4FB1
:102D80000E94B363BE01615E7C4F0E94E863C15E36
:102D9000DC4FE880F980CF51D3406BE479E0CE017D
:102DA00001960E94406269E379E0CE018F5F9C4FFB
:102DB0000E94406264E379E0CE01895F9C4F0E94EB
:102DC0004062CE01895F9C4F0E943B62CE018F5FC3
:102DD0009C4F0E943B62CE0101960E943B6202E141
:102DE000C01604E0D00611F40C94AF2408F085C09E
:102DF00028E0C21624E0D20609F466C608F042C0F4
:102E000043E0C41644E0D40609F460C328F5C114B5
:102E100084E0D80609F40FC188F4ACE1CA16A3E037
:102E2000DA0611F00C94882F0E94BEC3F092D70BE3
:102E3000E092D60B0E9471C30C94BF2FB1E0CB1669
:102E4000B4E0DB0609F468C1E2E0CE16E4E0DE0699
:102E500009F4F0C20C94882FF5E0CF16F4E0DF06F9
:102E600009F4B1C408F464C316E0C11614E0D10635
:102E700009F418C527E0C21624E0D20609F4F2C509
:102E80000C94882F3DE0C31634E0D30611F40C9463
:102E9000CF21C8F45AE0C51654E0D50611F40C94BD
:102EA000FE1F08F43BC79BE0C91694E0D90611F455
:102EB0000C940621ACE0CA16A4E0DA0611F40C94D6
:102EC00096210C94882FBFE0CB16B4E0DB0611F4FA
:102ED0000C94B62210F40C94BA21F0E1CF16F4E071
:102EE000DF0611F40C94382301E1C01604E0D0068B
:102EF00011F40C9485240C94882F1CE1C11614E065
:102F0000D10611F40C94C32EE0F537E1C31634E07A
:102F1000D30611F40C94782CD0F454E1C51654E087
:102F2000D50611F40C94A42610F40C94B62595E162
:102F3000C91694E0D90611F40C949C27A6E1CA1690
:102F4000A4E0DA0611F40C94EE290C94882FB9E170
:102F5000CB16B4E0DB0611F40C943F2E10F40C9465
:102F6000222EFAE1CF16F4E0DF0611F40C94652E60
:102F70000BE1C01604E0D00611F40C94932E0C94CF
:102F8000882F12E2C11614E0D10611F40C94202F00
:102F900010F53EE1C31634E0D30611F40C94F12E83
:102FA00010F40C94D82E50E2C51654E0D50611F456
:102FB0000C940E2F81E2C81684E0D80611F00C9410
:102FC000882F46E950E060E070E081E392E00E94E3
:102FD000D08D0C94BF2F95E2C91694E0D90611F458
:102FE0000C94292FC0F4B3E2CB16B4E0DB0611F445
:102FF0000C94172FE4E2CE16E4E0DE0611F00C94F8
:10300000882F4AE050E060E070E08EEE91E00E9490
:10301000D08D0C94BF2FF6E2CF16F4E0DF0611F44A
:103020000C945D2F07E2C01604E0D00611F40C9456
:10303000322F0C94882F13E0E116F10409F440C0FC
:1030400030F431E0E316F10441F1B0F031C055E065
:10305000E516F10409F444C0D8F196E0E916F1044C
:1030600009F446C0EF20E09409F04AC08CE09BE0F0
:103070000E94525B0C94BF2F809156089091570884
:103080000197029710F40C94932F41E066E58CE0D1
:103090009BE00E94D1590C94BF2F809156089091CB
:1030A00057080197029710F40C94932F0C949A2FC1
:1030B00041E068E18CE09BE00E94D1590C94BF2F65
:1030C00041E06AE18CE09BE00E94D1590C94BF2F53
:1030D00041E06CE18CE09BE00E94D1590C94BF2F41
:1030E00041E068E58CE09BE00E94D1590C94BF2F31
:1030F00041E06EE38CE09BE00E94D1590C94BF2F1D
:1031000068EE78E0CE0101960E944062CE01019601
:103110000E943B620C94BF2F80914F0A882309F4D0
:10312000A7C0B1E0EB16F10409F44CC078F0F2E06E
:10313000EF16F10409F46EC0EF20E09409F08CC0A2
:103140008CE09BE00E94525B0C94BF2F6AED78E00C
:10315000CE0101960E944062CE0101960E943B6220
:103160000E9471730E94E24A0E947E760E947C73E4
:103170000E947B721092ED031092EC038CE09BE0B6
:103180000E94525B8DE998E59A8389831C821B8299
:10319000AE014F5F5F4F6CE07BE0CE018F5F9C4FD5
:1031A0000E94476944EF51E0BE016F5F7C4F85E3A9
:1031B0009BE00E94306ACE018F5F9C4F0E94956910
:1031C0000C94BF2F6EEC78E0CE0101960E94406215
:1031D000CE0101960E943B626CEB78E0CE01019635
:1031E0000E944062CE0101960E94B767CE0101960F
:1031F0000E943B621092810886E598E00E9402CC12
:1032000087EB98E090932D0E80932C0E0E94E94A54
:103210000C94BF2F6AEA78E0CE0101960E944062CA
:10322000CE0101960E943B626AE978E0CE010196E8
:103230000E944062CE0101960E94B767CE010196BE
:103240000E943B6286E998E090932D0E80932C0EAD
:103250000E94E94A0C94BF2F63E878E0CE01019602
:103260000E944062CE0101960E943B620C94BF2FE7
:1032700011E0E116F10409F46BC078F032E0E316D6
:10328000F10409F49AC0EF20E09409F0C7C08CE083
:103290009BE00E94525B0C94BF2F64E778E0CE0164
:1032A00001960E944062CE0101960E943B6269E94C
:1032B00073E085E29BE00E94116269E973E08BE2B2
:1032C0009BE00E9411628FEF9FEF9093320B8093EF
:1032D000310B0E94E24A0E947E760E947C730E941B
:1032E0007B721092ED031092EC03EFE5F8E084910D
:1032F0008F010F5F1F4F882339F0082E000C990BA8
:103300000E94DA72F801F3CF8CE09BE00E94525BDE
:103310008DE998E59A8389831C821B82AE014F5FF9
:103320005F4F6CE07BE0CE018F5F9C4F0E9447694E
:1033300044EF51E0BE016F5F7C4F85E39BE00E944C
:10334000306ACE018F5F9C4F0E9495690C94BF2F0D
:103350006FE478E0CE0101960E944062CE010196B2
:103360000E943B626DE378E0CE0101960E944062CC
:10337000CE0101960E94B767CE0101960E943B6282
:1033800086E598E00E9402CC88E398E090932D0EA9
:1033900080932C0E0E94E94AE8E2F8E084918F01C4
:1033A0000F5F1F4F882311F40C94BF2F082E000CC1
:1033B000990B0E94DA72F801F1CF6BE178E0CE014F
:1033C00001960E944062CE0101960E943B626BE032
:1033D00078E0CE0101960E944062CE0101960E94E3
:1033E000B767CE0101960E943B6287E098E0909318
:1033F0002D0E80932C0E0E94E94AE6EFF7E08491AF
:103400008F010F5F1F4F882311F40C94BF2F082EDC
:10341000000C990B0E94DA72F801F1CF63EE77E0AD
:10342000CE0101960E944062CE0101960E943B624D
:103430000C94BF2F5EEFE5165FEFF506F9F0EF2075
:10344000E094C1F58091190B90911A0B892B61F4CE
:103450006CEC77E0CE0101960E944062CE010196AD
:103460000E943B620C94BF2F89E19BE00E9472692D
:1034700089E19BE00E94DF670C94BF2F80911B0BBA
:1034800090911C0B892B61F461EB77E0CE010196E2
:103490000E944062CE0101960E943B620C94BF2FB5
:1034A0008BE19BE00E9472698BE19BE00E94DF67E9
:1034B0000C94BF2F6EE977E0CE0101960E94406226
:1034C000CE0101960E943B620C94BF2F91E0E91659
:1034D000F104C1F068F0B2E0EB16F104C1F0EF20A6
:1034E000E094D1F48CE09BE00E947A5B0C94BF2FB7
:1034F0000E9454C541E06EE18CE09BE00E94D159EE
:103500000C94BF2F81E00E9432C60C94BF2F80E044
:103510000E9432C60C94BF2F6BE877E0CE01019673
:103520000E944062CE0101960E943B620C94BF2F24
:10353000F4E0EF16F104C0F401E0E016F10408F045
:1035400059C06EE777E0CE0101960E944062CE013D
:1035500001960E943B626FE173E0CE0101960E94EA
:1035600058850AE51BE011C01AEAE116F10609F4D4
:103570000EC1EF20E09409F01AC18091660B909182
:10358000670B0E94525B0C94BF2FD8018D919C91C8
:103590001197C95FDC4F99838883C750D340129637
:1035A0008D919C911397CF5FDC4F99838883C15095
:1035B000D340BE016F5F7C4FCE0101960E948E65A5
:1035C000BE01695F7C4F0E948E650C5F1F4FBBE0A0
:1035D00006361B07D1F661E0CE0101960E941B65FD
:1035E00041E064E28091660B9091670B0E94D15993
:1035F0000C94BF2F60E777E0CE0101960E944062F5
:10360000CE0101960E943B6246E06FE173E0CE017D
:1036100001960E942885CE0101960E948684811120
:103620000EC066E577E0CE018F5F9C4F0E9440623E
:10363000CE018F5F9C4F0E943B620C94BF2FC35FF3
:10364000DC4F19821882CD50D340C95FDC4F1982FC
:103650001882C750D3400AE51BE020E0BE01695F35
:103660007C4FCE010196C35DDC4F2883CD52D34001
:103670000E94E863BE01635F7C4F0E94E863C35F02
:10368000DC4F88819981CD50D340F8014081518130
:10369000C35DDC4F2881CD52D3408417950759F480
:1036A000C95FDC4F68817981C750D3404281538123
:1036B0006417750709F021E0D80111969C938E9349
:1036C000C95FDC4F88819981C750D34013969C9382
:1036D0008E9312970C5F1F4FBBE006361B0709F055
:1036E000BDCF21110E94275CE1E0EE1AF10869E9E3
:1036F00073E0CE018F5F9C4F0E9448626FE477E0D9
:10370000CE018F5F9C4F0E94CC61C701880F991F2B
:10371000880F991F8C01045F144FF801E25BFF4F83
:1037200060817181CE018F5F9C4F0E943761CF5FB6
:10373000DC4F88819981C150D3400E942A7468E48B
:1037400077E0CE018F5F9C4F0E94CC61F801E05B77
:10375000FF4F60817181CE018F5F9C4F0E94376166
:10376000CF5FDC4F88819981C150D3400E942A7479
:1037700041E066E58091660B9091670B0E94D159FC
:10378000CE018F5F9C4F0E943B620C94BF2F6FE372
:1037900077E0CE0101960E944062CE0101960E9420
:1037A0003B620E94AF670E947B720C94BF2F6CE259
:1037B00077E0CE0101960E944062CE0101960E9400
:1037C0003B620C94BF2FF3E0EF16F104A9F188F4EB
:1037D00011E0E116F104E1F028F50E9462CC0E94AC
:1037E00048A041E066E28CE09BE00E94D1590C9435
:1037F000BF2F35E0E316F10499F140F1EF20E0949A
:1038000009F044C08CE09BE00E94525B0C94BF2FF7
:1038100085E297E090932D0E80932C0E0E94E94A4A
:103820000C94BF2F8EE197E090932D0E80932C0E79
:103830000E94E94A0C94BF2F87E197E090932D0EE8
:1038400080932C0E0E94E94A0C94BF2F83E197E0ED
:1038500090932D0E80932C0E0E94E94A0C94BF2F5A
:103860008FE097E090932D0E80932C0E0E94E94AF2
:103870001092EB031092EA031092E9031092E8030E
:103880001092E7031092E6030C94BF2F6CEF76E0E2
:10389000CE0101960E944062CE0101960E943B62D9
:1038A0000C94BF2FE11480E8F806D1F040F4A1E0B9
:1038B000EA1AF108B5E0EB16F104E8F1C7C0E1E05F
:1038C000EE16E0E8FE0641F1EF20E09409F0BEC0FC
:1038D0008091580B9091590B0E94525B0C94BF2F12
:1038E00080918208882311F40C94BF2F8091560B8D
:1038F0009091570B05962091540B3091550B8217E0
:10390000930720F49093570B8093560B84E59BE02C
:103910000E94EA580C94BF2F80918208882311F4EA
:103920000C94BF2F8091560B9091570B85309105C9
:1039300068F30597E7CF80918208882311F40C94EF
:10394000BF2F8091560B9091570B8E159F0510F449
:103950000C94BF2F60E070E08E199F090E942A76B8
:103960008091830881110C94BF2F80919108882346
:1039700019F061E978E002C064E878E0CE01895F7F
:103980009C4F0E944862C55FDC4F88819981CB5073
:10399000D340892B09F453C0BE01695F7C4F85E297
:1039A0009BE00E94266269E973E08BE29BE00E9443
:1039B00011628FEF9FEF9093320B8093310B69E68A
:1039C00071E0CE0101960E94588520E04AE150E066
:1039D000BE01695F7C4FCE018F5F9C4F0E94526693
:1039E000BE016F5F7C4FCE0101960E948D65CE01B6
:1039F0008F5F9C4F0E943B6261E0CE0101960E9466
:103A00001B6540E061E084E898E00E949687809121
:103A10008208882319F081E0809381080E94D6C52E
:103A200041E06AE28091580B9091590B0E94D15964
:103A3000CE01895F9C4F0E943B620C94BF2FCE0148
:103A4000895F9C4F0E943B620C94BF2F69EE76E029
:103A5000CE0101960E944062CE0101960E943B6217
:103A60000C94BF2F01E0E016F10491F048F0EF2034
:103A7000E094F1F48CE09BE00E94525B0C94BF2F29
:103A800041E062E48CE09BE00E94D1590C94BF2F8E
:103A900084EE96E090932D0E80932C0E0E94E94ABE
:103AA0000E941A8E8CE09BE00E94525B0C94BF2F08
:103AB00061ED76E0CE0101960E944062CE01019652
:103AC0000E943B620C94BF2F33E0E316F10409F42B
:103AD000ADC008F04AC051E0E516F10409F45EC03B
:103AE00008F080C041E067EC76E08CE09BE00E944B
:103AF000095C1092EB031092EA031092E903109212
:103B0000E8031092E7031092E60383EC96E09093AB
:103B10002D0E80932C0E0E94E94A8FEB96E0909335
:103B20002D0E80932C0E0E94E94A85EA9AE59A832D
:103B300089831C821B82AE014F5F5F4F6CE07BE08C
:103B4000CE018F5F9C4F0E94476948EC50E0BE0158
:103B50006F5F7C4F85E39BE00E94306ACE018F5FF0
:103B60009C4F0E9495690C94BF2F95E0E916F104D3
:103B700009F4A4C008F47EC0EF20E09409F0C2C0AC
:103B800089E995E090932D0E80932C0E0E94E94ACE
:103B90008CE09BE00E94525B0C94BF2F62EB76E0BE
:103BA000CE0101960E944062CE0101960E943B62C6
:103BB00085EA96E090932D0E80932C0E0E94E94AA0
:103BC00084E996E090932D0E80932C0E0E94E94A92
:103BD00088E896E090932D0E80932C0E0E94E94A7F
:103BE0000C94BF2F6BE776E0CE0101960E944062F5
:103BF000CE0101960E943B628EE696E090932D0ED8
:103C000080932C0E0E94E94A8BE596E090932D0E4E
:103C100080932C0E0E94E94A8FE496E090932D0E3B
:103C200080932C0E0E94E94A0C94BF2F62E476E048
:103C3000CE0101960E944062CE0101960E943B6235
:103C400085E396E090932D0E80932C0E0E94E94A16
:103C500083E296E090932D0E80932C0E0E94E94A09
:103C600087E196E090932D0E80932C0E0E94E94AF6
:103C70000C94BF2F6AE076E0CE0101960E9440626C
:103C8000CE0101960E943B628DEF95E090932D0E40
:103C900080932C0E0E94E94A8BEE95E090932D0EB6
:103CA00080932C0E0E94E94A8FED95E090932D0EA3
:103CB00080932C0E0E94E94A0C94BF2F62ED75E0B0
:103CC000CE0101960E944062CE0101960E943B62A5
:103CD00085EC95E090932D0E80932C0E0E94E94A7E
:103CE00082EB95E090932D0E80932C0E0E94E94A72
:103CF00086EA95E090932D0E80932C0E0E94E94A5F
:103D00000C94BF2F66E875E0CE0101960E944062D8
:103D1000CE0101960E943B620C94BF2FE1E0EE16AB
:103D2000F10409F453C050F102E0E016F10409F483
:103D300082C0EF20E09409F055C182E59BE00E942B
:103D4000DF671092D0131092CF1380E00E9431727F
:103D50008BE195E090932D0E80932C0E0E94E94A02
:103D600084E195E090932D0E80932C0E0E94E94AF9
:103D70008CE09BE00E94525B0C94BF2F0E9454C5C4
:103D800060E175E0CE0101960E94588588EC90E0D4
:103D9000CF5FDC4F99838883C150D340BE016F5FF2
:103DA0007C4FCE0101960E948E6561E0CE010196A6
:103DB0000E941B658CE09BE00E94C95941E062E3D0
:103DC0008CE09BE00E94D1590C94BF2F0E9410C53B
:103DD0008C01892B11F40C94BF2F41E06EE675E045
:103DE0008CE09BE00E94095C1093D0130093CF13EA
:103DF00080E00E94317287E297E59A8389831C8272
:103E00001B82AE014F5F5F4F6CE07BE0CE018F5FA6
:103E10009C4F0E94476944EF51E0BE016F5F7C4FA9
:103E200085E39BE00E94306ACE018F5F9C4F0E9429
:103E300095690C94BF2F41E060E175E0CE010196D9
:103E40000E942885CE0101960E94868481110EC0B1
:103E500063E575E0CE018F5F9C4F0E944062CE010A
:103E60008F5F9C4F0E943B620C94BF2FC75EDC4F5C
:103E700019821882C951D340BE01675E7C4FCE01C2
:103E800001960E94E863C75EDC4F88819981C95121
:103E9000D3406AE070E00E94D0E48B01C75EDC4F43
:103EA00079836883C951D3408091DD139091DE13EB
:103EB000A091DF13B091E0138093740B9093750B76
:103EC000A093760BB093770B8091E1139091E2135E
:103ED000A091E313B091E4138093780B9093790B46
:103EE000A0937A0BB0937B0B8091E5139091E6132E
:103EF000A091E713B091E81380937C0B90937D0B16
:103F0000A0937E0BB0937F0BC090EB0BD090EC0B8B
:103F1000E090ED0BF090EE0B2091E9133091EA1355
:103F20004091EB135091EC13C701B6010E9415DECE
:103F30004B015C0120E030E040EA51E4C701B601EA
:103F40000E9408E26B017C01B80180E090E00E94D1
:103F5000B4DD9B01AC01C701B6010E9407E29B01E1
:103F6000AC01C501B4010E94E4E26093800B709340
:103F7000810B8093820B9093830B6AE475E0CE01F2
:103F80008D5E9C4F0E9440626CE375E0CE01835FC2
:103F90009C4F0E9440626EE275E0CE01895F9C4FAB
:103FA0000E9440626FE175E0CE018F5F9C4F0E94DE
:103FB0004062CE018F5F9C4F0E943B62CE01895FC1
:103FC0009C4F0E943B62CE01835F9C4F0E943B62EC
:103FD000CE018D5E9C4F0E943B6280E00E94D8C162
:103FE0000C94BF2F61E075E0CE0101960E94406203
:103FF000CE0101960E943B620C94BF2F22E0E21694
:10400000F10409F444C03FEFE316F30609F4ECC0F1
:10401000EF2809F0EFC060E175E0CE0101960E9443
:10402000588588EC90E0C35FDC4F99838883CD503E
:10403000D340C95FDC4F99838883C750D340CF5F9B
:10404000DC4F99838883C150D340BE016F5F7C4FA2
:10405000CE0101960E948E65BE01695F7C4F0E9471
:104060008E65BE01635F7C4F0E948E6561E0CE016C
:1040700001960E941B658CE09BE00E94C95941E0BB
:1040800068E38CE09BE00E94D1590C94BF2F43E081
:1040900060E175E0CE0101960E942885CE0101966F
:1040A0000E94868481110EC066EE74E0CE018F5F9F
:1040B0009C4F0E944062CE018F5F9C4F0E943B62EA
:1040C0000C94BF2FC35FDC4F19821882CD50D340B0
:1040D000C95FDC4F19821882C750D340CF5FDC4FD5
:1040E00019821882C150D340BE01635F7C4FCE015C
:1040F00001960E94E863BE01695F7C4F0E94E863FD
:10410000BE016F5F7C4F0E94E863C35FDC4F688134
:104110007981CD50D34080E090E00E94B4DD9B01D6
:10412000AC016091DD137091DE138091DF139091EB
:10413000E0130E9483C56093740B7093750B80939A
:10414000760B9093770BC95FDC4F68817981C750FC
:10415000D34080E090E00E94B4DD9B01AC0160910F
:10416000E1137091E2138091E3139091E4130E94A4
:1041700083C56093780B7093790B80937A0B90933F
:104180007B0BCF5FDC4F68817981C150D34080E0E9
:1041900090E00E94B4DD9B01AC016091E513709149
:1041A000E6138091E7139091E8130E9483C5609312
:1041B0007C0B70937D0B80937E0B90937F0B809193
:1041C000E9139091EA13A091EB13B091EC13809353
:1041D000800B9093810BA093820BB093830B80E0B4
:1041E0000E94D8C10C94BF2F8CE09BE00E94525BD0
:1041F0000C94BF2F63ED74E0CE0101960E944062E3
:10420000CE0101960E943B620C94BF2F41E0E41660
:10421000F10409F449C050F0EF20E09409F07AC0AD
:104220008CE09BE00E94525B0C94BF2F8091D113D5
:104230009091D213A091D313B091D4138093680BB3
:104240009093690BA0936A0BB0936B0B8091D5137D
:104250009091D613A091D713B091D81380936C0B83
:1042600090936D0BA0936E0BB0936F0B8091D9134D
:104270009091DA13A091DB13B091DC138093700B53
:104280009093710BA093720BB093730B0E9454C563
:104290008CE09BE00E94C95941E06AE38CE09BE01E
:1042A0000E94D1590C94BF2F0E9410C58C01892BFC
:1042B00011F40C94BF2F89EC94E090932D0E809311
:1042C0002C0E0E94E94A69E973E0CE0101960E9432
:1042D000486262EC74E0CE0101960E94DB60B80196
:1042E000CE0101960E94376169EB74E0CE01019620
:1042F0000E94DB6089819A810E942A7441E06CE30C
:104300008CE09BE00E94D159CE0101960E943B6255
:104310000C94BF2F66EA74E0CE0101960E944062C1
:10432000CE0101960E943B620C94BF2F9EEFE916CE
:104330009FEFF90611F40C94BF2F50F4EF2871F49D
:1043400041E06CE58CE09BE00E94D1590C94BF2FBA
:104350008CE09BE00E94525B0C94BF2F63E974E0F9
:10436000CE0101960E944062CE0101960E943B62FE
:104370000C94BF2FEF20E09431F48CE09BE00E947E
:10438000525B0C94BF2F60E874E0CE0101960E944E
:104390004062CE0101960E943B620C94BF2FE2E086
:1043A000EE16F10409F450C0A8F4E114F10461F12F
:1043B000EA94EF2809F0CEC08091CA0B9091CB0B04
:1043C00042E084279093CB0B8093CA0B0E94D1C309
:1043D0000C94BF2F1EEFE1161FEFF10609F49AC0EF
:1043E00008F0A2C033E0E316F10409F0B3C0409135
:1043F000CC0B5091CD0B6091CE0B7091CF0BEFE3B6
:10440000F2E080E090E058C08091CC0B9091CD0B11
:10441000A091CE0BB091CF0B8093D00B9093D10B8A
:10442000A093D20BB093D30B0E94AFC40E94D1C310
:104430008CE09BE00E94C95941E06AE58CE09BE07A
:104440000E94D1590C94BF2F4091CC0B5091CD0BB1
:104450006091CE0B7091CF0BEFE3F2E080E090E043
:104460000191119121913191401751076207730712
:1044700019F4009751F404C001968730910581F733
:1044800080E895E2A0E0B0E00BC0880F991F880F8C
:10449000991FFC01E55CFD4F80819181A281B38170
:1044A0008093CC0B9093CD0BA093CE0BB093CF0BFE
:1044B0000E94AFC40C94BF2F0191119121913191B1
:1044C000401751076207730741F48630910559F48C
:1044D00080E990EDA3E0B0E011C00196873091052E
:1044E00059F780E090E0880F991F880F991FFC0111
:1044F000ED5BFD4F80819181A281B3818093CC0BD4
:104500009093CD0BA093CE0BB093CF0B0E94AFC472
:104510000C94BF2F0E941A8E8CE09BE00E94525B8D
:104520000E9469C40C94BF2F8091D00B9091D10B45
:10453000A091D20BB091D30B8093CC0B9093CD0B69
:10454000A093CE0BB093CF0B8CE09BE00E94525B0C
:104550000C94BF2F6DE674E0CE0101960E9440627C
:10456000CE0101960E943B620C94BF2F52E0E516EB
:10457000F104D9F1F0F4E114F10449F1EA94EF28DF
:1045800009F06AC08091CA0B9091CB0BE4E08E27B2
:104590009093CB0B8093CA0B82FB882780F9809382
:1045A000D40B0E94BEC30E94D1C30E941A8E0C94E9
:1045B000BF2FA3E0EA16F10469F1EF20E09409F0BF
:1045C0004BC08CE09BE00E94525B0C94BF2F0E947A
:1045D000D1C38CE09BE00E94C95941E060E68CE0C9
:1045E0009BE00E94D1590C94BF2F8091CA0B9091EF
:1045F000CB0BF8E08F279093CB0B8093CA0B83FBF8
:10460000882780F98093330B0E94D1C30E941A8EB1
:104610000C94BF2F8091CA0B9091CB0B00E18027A7
:104620009093CB0B8093CA0B34E0969587953A957F
:10463000E1F781708093340B882341F042E350E02E
:1046400060E070E08DE19BE00E94BD660E94D1C3F6
:104650000E941A8E0C94BF2F6AE574E0CE01019679
:104660000E944062CE0101960E943B620C94BF2FD3
:10467000E114F10451F0EF20E09409F03AC18CE02C
:104680009BE00E94525B0C94BF2FA0906408B090F6
:1046900065088090660890906708E0906808F09040
:1046A000690800916A0810916B08CE5DDC4FE882C2
:1046B000F9820A831B83C252D34040906C08509009
:1046C0006D0860906E0870906F08C0907008D09070
:1046D0007108E0907208F090730861E871E0CE0113
:1046E00001960E945885C95FDC4F99828882C75025
:1046F000D340CF5FDC4FB982A882C150D340BE0106
:104700006F5F7C4FCE0101960E948E65BE01695F8E
:104710007C4F0E948E6561E0CE0101960E941B6570
:104720008AE5A82EA98295EAB92EBA8211E01B83E8
:1047300024E0922EC050DF4F9882C050D14083E8D1
:1047400091E0CF5FDC4F99838883C150D340BE0195
:104750006F5F7C4FCE0101960E948E6500E020E1E4
:1047600030E0CE5DDC4F488159816A817B81C25245
:10477000D340CE018F5F9C4F0E941566BE016F5FD4
:104780007C4FCE0101960E948D65CE018F5F9C4FBC
:104790000E943B6261E0CE0101960E941B65A982E6
:1047A000BA821B83C050DF4F9882C050D1408BE843
:1047B00091E0CF5FDC4F99838883C150D340BE0125
:1047C0006F5F7C4FCE0101960E948E6520E130E044
:1047D000B301A201CE018F5F9C4F0E941566BE01FE
:1047E0006F5F7C4FCE0101960E948D65CE018F5F79
:1047F0009C4F0E943B6261E0CE0101960E941B65C6
:1048000069E973E0CE01895F9C4F0E94486220E015
:1048100030E04AE754E4C701B6010E94E4E20E9496
:1048200051E3CE01895F9C4F0E94376163EF72E0D4
:10483000CE01895F9C4F0E94956120E030E048ECFA
:1048400052E4C701B6010E94E4E20E9451E3CB01A9
:104850006AE070E00E94D0E4BC01CE01895F9C4F09
:104860000E94376165ED72E0CE01895F9C4F0E9426
:104870009561A982BA821B83C050DF4F9882C050D5
:10488000D14083E991E0CF5FDC4F99838883C150A9
:10489000D340BE016F5F7C4FCE0101960E948E65B2
:1048A00020E040E150E0BE01695F7C4FCE018F5FA8
:1048B0009C4F0E945266BE016F5F7C4FCE010196F5
:1048C0000E948D65CE018F5F9C4F0E943B6261E02C
:1048D000CE0101960E941B65CE01895F9C4F0E940C
:1048E0003B6241E064E48CE09BE00E94D1590C946F
:1048F000BF2F67E474E0CE0101960E944062CE01B2
:1049000001960E943B620C94BF2F01E0E016F10477
:1049100091F048F0EF20E094B1F48CE09BE00E942D
:10492000525B0C94BF2F41E066E48CE09BE00E9458
:10493000D1590C94BF2F40E066E18CE09BE00E94CF
:10494000D1590C94BF2F64E374E0CE0101960E940C
:104950004062CE0101960E943B620C94BF2F3EEF55
:10496000E3163FEFF30609F464C008F0EDC0EF284A
:1049700009F0F0C067E073E0CE0101960E9458850F
:104980002091EC033091ED0344E6429FC001439F28
:10499000900D11246FEF70E00E94E4E4CD5EDC4FD7
:1049A00079836883C351D3408091E4039091E503F8
:1049B000C35FDC4F99838883CD50D3408091CF1360
:1049C0009091D013C95FDC4F99838883C750D3403F
:1049D0008091000290910102CF5FDC4F9983888320
:1049E000C150D340BE016F5F7C4FCE0101960E9443
:1049F0008E65BE01695F7C4F0E948E65BE01635F5C
:104A00007C4F0E948E65BE016D5E7C4F0E948E655C
:104A100061E0CE0101960E941B658CE09BE00E9444
:104A2000C95941E060E58CE09BE00E94D1590C94AB
:104A3000BF2F44E067E073E0CE0101960E94288515
:104A4000CE0101960E94868481110EC063E174E05C
:104A5000CE018F5F9C4F0E944062CE018F5F9C4FC2
:104A60000E943B620C94BF2FCD5EDC4F19821882EE
:104A7000C351D340C35FDC4F19821882CD50D3405D
:104A8000C95FDC4F19821882C750D340CF5FDC4F1B
:104A900019821882C150D340BE016D5E7C4FCE0199
:104AA00001960E94E863BE01635F7C4F0E94E86349
:104AB000BE01695F7C4F0E94E863BE016F5F7C4F5F
:104AC0000E94E863CD5EDC4F88819981C351D34059
:104AD0009093010280930002C35FDC4F888199812B
:104AE000CD50D3409093D0138093CF1380E00E9499
:104AF0003172C95FDC4F88819981C750D3408739B3
:104B0000910514F086E990E09093E5038093E40327
:104B10000E94E771CF5FDC4F28813981C150D340BB
:104B20004FEF429FC001439F900D112464E670E057
:104B30000E94E4E47093ED036093EC038CE09BE04F
:104B40000E94C25B0C94BF2F8CE09BE00E94525BE2
:104B50000C94BF2F60E074E0CE0101960E94406289
:104B6000CE0101960E943B620C94BF2F5EEFE516CA
:104B70005FEFF50659F008F0A3C0EF2809F0D8C0A0
:104B800061E081E00E94B3C20C94BF2F43E064E077
:104B900073E0CE0101960E942885CE0101960E9405
:104BA000868481110EC061EE73E0CE018F5F9C4F51
:104BB0000E944062CE018F5F9C4F0E943B620C942A
:104BC000BF2FC35FDC4F19821882CD50D340C95F1D
:104BD000DC4F19821882C750D340CF5FDC4F198257
:104BE0001882C150D340BE01635F7C4FCE01019655
:104BF0000E94E863BE01695F7C4F0E94E863BE01CA
:104C00006F5F7C4F0E94E863C35FDC4F68817981EE
:104C1000CD50D34080E090E00E94B4DD20E030E051
:104C200048EC52E40E94E4E26093D1137093D213F3
:104C30008093D3139093D413C95FDC4F688179813B
:104C4000C750D34080E090E00E94B4DD20E030E027
:104C500048EC52E40E94E4E22CEA35EC47E25EE3E1
:104C60000E9415DE6093D5137093D6138093D713EB
:104C70009093D813CF5FDC4F68817981C150D340C6
:104C800080E090E00E94B4DD20E030E048EC52E4A7
:104C90000E94E4E22CEA35EC47E25EE30E94E4E2A3
:104CA0006093D9137093DA138093DB139093DC1322
:104CB0000E941A8E8CE09BE00E94C25B0C94BF2F76
:104CC0008091680B9091690BA0916A0BB0916B0B6E
:104CD0008093D1139093D213A093D313B093D41392
:104CE00080916C0B90916D0BA0916E0BB0916F0B3E
:104CF0008093D5139093D613A093D713B093D81362
:104D00008091700B9091710BA091720BB091730B0D
:104D10008093D9139093DA13A093DB13B093DC1331
:104D20000E94275C8CE09BE00E94525B0C94BF2F9A
:104D30006EEC73E0CE0101960E944062CE010196B6
:104D40000E943B620C94BF2F9EEFE9169FEFF9067D
:104D500051F008F0DFC0EF2809F0E2C081E00E94C6
:104D6000D8C10C94BF2F44E060E073E0CE010196FF
:104D70000E942885CE0101960E94868481110EC072
:104D80006DEA73E0CE018F5F9C4F0E944062CE01BE
:104D90008F5F9C4F0E943B620C94BF2FCD5EDC4F17
:104DA00019821882C351D340C35FDC4F1982188225
:104DB000CD50D340C95FDC4F19821882C750D34011
:104DC000CF5FDC4F19821882C150D340BE016D5EA7
:104DD0007C4FCE0101960E94E863BE01635F7C4F69
:104DE0000E94E863BE01695F7C4F0E94E863BE01D8
:104DF0006F5F7C4F0E94E863CD5EDC4F68817981F4
:104E0000C351D34080E090E00E94B4DD20E030E068
:104E100040E251E40E94E4E22B013C016093740BF8
:104E20007093750B8093760B9093770BC35FDC4F79
:104E300068817981CD50D34080E090E00E94B4DD5C
:104E400020E030E040E251E40E94E4E24B015C01EA
:104E50006093780B7093790B80937A0B90937B0B14
:104E6000C95FDC4F68817981C750D34080E090E012
:104E70000E94B4DD20E030E040E251E40E94E4E230
:104E80006B017C0160937C0B70937D0B80937E0B98
:104E900090937F0BCF5FDC4F68817981C150D34005
:104EA00080E090E00E94B4DD20E030E040E251E498
:104EB0000E94E4E26093800B7093810B8093820BDD
:104EC0009093830B4092DD135092DE136092DF13B8
:104ED0007092E0138092E1139092E213A092E31398
:104EE000B092E413C092E513D092E613E092E71378
:104EF000F092E8136093E9137093EA138093EB1335
:104F00009093EC130E94275C8CE09BE00E94C25BB4
:104F10000C94BF2F8CE09BE00E94525B0C94BF2F3F
:104F20006AE973E0CE0101960E944062CE010196CB
:104F30000E943B620C94BF2FBEEFEB16BFEFFB0647
:104F400009F4FBC008F03AC2EF2809F03CC2809196
:104F5000D4039091D503A091D603B091D703809349
:104F6000840B9093850BA093860BB093870B809155
:104F7000D8039091D903A091DA03B091DB03809319
:104F8000880B9093890BA0938A0BB0938B0B809125
:104F9000DC039091DD03A091DE03B091DF038093E9
:104FA0008C0B90938D0BA0938E0BB0938F0B8091F5
:104FB000E0039091E103A091E203B091E3038093B9
:104FC000900B9093910BA093920BB093930B8091C5
:104FD000D0039091D103A091D203B091D3038093D9
:104FE000940B9093950BA093960BB093970B809195
:104FF000CC039091CD03A091CE03B091CF038093C9
:10500000980B9093990BA0939A0BB0939B0B8CE009
:105010009BE00E94C9596BE073E0CE0101960E94AB
:1050200058856091980B7091990B80919A0B909193
:105030009B0B0E9451E3C55EDC4F79836883CB51A3
:10504000D3406091940B7091950B8091960B909149
:10505000970B0E9451E3C75EDC4F79836883C95187
:10506000D3406091900B7091910B8091920B909135
:10507000930B0E9451E3CD5EDC4F79836883C3516B
:10508000D34060918C0B70918D0B80918E0B909121
:105090008F0B0E9451E3C35FDC4F79836883CD504F
:1050A000D3406091880B7091890B80918A0B90910D
:1050B0008B0B0E9451E3C95FDC4F79836883C75033
:1050C000D3406091840B7091850B8091860B9091F9
:1050D000870B0E9451E3CF5FDC4F79836883C15017
:1050E000D340BE016F5F7C4FCE0101960E948E655A
:1050F000BE01695F7C4F0E948E65BE01635F7C4F7D
:105100000E948E65BE016D5E7C4F0E948E65BE0161
:10511000675E7C4F0E948E65BE01655E7C4F0E947B
:105120008E6561E0CE0101960E941B6541E06AE454
:105130008CE09BE00E94D15922C746E06BE073E00F
:10514000CE0101960E942885CE0101960E94868498
:1051500081110DC066E773E0CE018F5F9C4F0E9406
:105160004062CE018F5F9C4F0E943B6208C7C55EC4
:10517000DC4F19821882CB51D340C75EDC4F1982B5
:105180001882C951D340CD5EDC4F19821882C351B9
:10519000D340C35FDC4F19821882CD50D340C95F22
:1051A000DC4F19821882C750D340CF5FDC4F198281
:1051B0001882C150D340BE01655E7C4FCE0101967E
:1051C0000E94E863BE01675E7C4F0E94E863BE01F7
:1051D0006D5E7C4F0E94E863BE01635F7C4F0E945E
:1051E000E863BE01695F7C4F0E94E863BE016F5FA8
:1051F0007C4F0E94E863C55EDC4F68817981CB51AA
:10520000D34080E090E00E94B4DD9B01AC0160934C
:10521000840B7093850B8093860B9093870BC75EEE
:10522000DC4F68817981C951D34080E090E0C35D53
:10523000DC4F2883CD52D340C65DDC4F3883CA5241
:10524000D340C55DDC4F4883CB52D340C45DDC4FB7
:105250005883CC52D3400E94B4DD2B013C016093B3
:10526000880B7093890B80938A0B90938B0BCD5E88
:10527000DC4F68817981C351D34080E090E00E9487
:10528000B4DD4B015C0160938C0B70938D0B8093AC
:105290008E0B90938F0BC35FDC4F68817981CD506B
:1052A000D34080E090E00E94B4DD6B017C0160930C
:1052B000900B7093910B8093920B9093930BC95F1B
:1052C000DC4F68817981C750D34080E090E00E9434
:1052D000B4DDCE5DDC4F688379838A839B83C252C1
:1052E000D3406093940B7093950B8093960B90939F
:1052F000970BCF5FDC4F68817981C150D34080E04C
:1053000090E00E94B4DD6093980B7093990B8093AA
:105310009A0B90939B0BC35DDC4F2881CD52D340F9
:10532000C65DDC4F3881CA52D340C55DDC4F488131
:10533000CB52D340C45DDC4F5881CC52D340209334
:10534000D4033093D5034093D6035093D7034092B0
:10535000D8035092D9036092DA037092DB038092F3
:10536000DC039092DD03A092DE03B092DF03C092D3
:10537000E003D092E103E092E203F092E303CE5D1A
:10538000DC4FE880F9800A811B81C252D340E09251
:10539000D003F092D1030093D2031093D303609310
:1053A000CC037093CD038093CE039093CF030E94E0
:1053B000275C8CE09BE00E94C25BE1C58CE09BE037
:1053C0000E94525BDCC563E673E0CE0101960E9449
:1053D0004062CE0101960E943B62D1C50EEFE016FD
:1053E0000FEFF00609F408C108F072C2EF2809F0C7
:1053F00074C28091BC039091BD03A091BE03B09193
:10540000BF0380939C0B90939D0BA0939E0BB09336
:105410009F0B8091C0039091C103A091C203B091F2
:10542000C3038093A00B9093A10BA093A20BB09306
:10543000A30B8091C4039091C503A091C603B091C2
:10544000C7038093A40B9093A50BA093A60BB093D6
:10545000A70B8091C8039091C903A091CA03B09192
:10546000CB038093A80B9093A90BA093AA0BB093A6
:10547000AB0B8091B8039091B903A091BA03B0919E
:10548000BB038093AC0B9093AD0BA093AE0BB0938A
:10549000AF0B8091B4039091B503A091B603B09186
:1054A000B7038093B00B9093B10BA093B20BB09362
:1054B000B30B8091B0039091B103A091B203B0916E
:1054C000B3038093B40B9093B50BA093B60BB0933A
:1054D000B70B8CE09BE00E94C95961E173E0CE01FB
:1054E00001960E9458856091B40B7091B50B809124
:1054F000B60B9091B70B0E9451E3C35EDC4F7983EA
:105500006883CD51D3406091B00B7091B10B809105
:10551000B20B9091B30B0E9451E3C55EDC4F7983CF
:105520006883CB51D3406091AC0B7091AD0B8091EF
:10553000AE0B9091AF0B0E9451E3C75EDC4F7983B5
:105540006883C951D3408091A80B9091A90BCD5E7F
:10555000DC4F99838883C351D3408091A40B9091F1
:10556000A50BC35FDC4F99838883CD50D3408091D6
:10557000A00B9091A10BC95FDC4F99838883C75022
:10558000D34080919C0B90919D0BCF5FDC4F998312
:105590008883C150D340BE016F5F7C4FCE0101961E
:1055A0000E948E65BE01695F7C4F0E948E65BE01C0
:1055B000635F7C4F0E948E65BE016D5E7C4F0E94D2
:1055C0008E65BE01675E7C4F0E948E65BE01655E82
:1055D0007C4F0E948E65BE01635E7C4F0E948E658B
:1055E00061E0CE0101960E941B6541E06CE48CE015
:1055F0009BE00E94D159C3C447E061E173E0CE0152
:1056000001960E942885CE0101960E948684811110
:105610000DC06BE373E0CE018F5F9C4F0E94406230
:10562000CE018F5F9C4F0E943B62A9C4C35EDC4FDA
:1056300019821882CD51D340C55EDC4F1982188281
:10564000CB51D340C75EDC4F19821882C951D34079
:10565000CD5EDC4F19821882C351D340C35FDC4F4B
:1056600019821882CD50D340C95FDC4F198218824D
:10567000C750D340CF5FDC4F19821882C150D3404E
:10568000BE01635E7C4FCE0101960E94E863BE01BD
:10569000655E7C4F0E94E863BE01675E7C4F0E949E
:1056A000E863BE016D5E7C4F0E94E863BE01635FEC
:1056B0007C4F0E94E863BE01695F7C4F0E94E863F3
:1056C000BE016F5F7C4F0E94E863C35EDC4F888041
:1056D0009980CD51D340A12CB12C80929C0B9092FB
:1056E0009D0BA0929E0BB0929F0BC55EDC4FC880B5
:1056F000D980CB51D340E12CF12CC092A00BD09299
:10570000A10BE092A20BF092A30BC75EDC4F888145
:105710009981C951D3409C0140E050E0CE5DDC4FFF
:10572000288339834A835B83C252D3402093A40BDE
:105730003093A50B4093A60B5093A70BCD5EDC4F87
:1057400088819981C351D3409C0140E050E0CA5DFB
:10575000DC4F288339834A835B83C652D34020932E
:10576000A80B3093A90B4093AA0B5093AB0BC35FCC
:10577000DC4F68817981CD50D34080E090E00E9479
:10578000B4DD9B01AC016093AC0B7093AD0B8093C7
:10579000AE0B9093AF0BC95FDC4F68817981C75026
:1057A000D34080E090E0C35DDC4F2883CD52D340EE
:1057B000C65DDC4F3883CA52D340C55DDC4F488399
:1057C000CB52D340C45DDC4F5883CC52D3400E94AF
:1057D000B4DD2B013C016093B00B7093B10B80934F
:1057E000B20B9093B30BCF5FDC4F68817981C150CE
:1057F000D34080E090E00E94B4DD6093B40B7093DE
:10580000B50B8093B60B9093B70B8092BC0390922C
:10581000BD03A092BE03B092BF03C092C003D0925A
:10582000C103E092C203F092C303CE5DDC4FE88077
:10583000F9800A811B81C252D340E092C403F092E6
:10584000C5030093C6031093C703CA5DDC4FE8800D
:10585000F9800A811B81C652D340E092C803F092BE
:10586000C9030093CA031093CB03C35DDC4F2881A7
:10587000CD52D340C65DDC4F3881CA52D340C55D9E
:10588000DC4F4881CB52D340C45DDC4F5881CC52B1
:10589000D3402093B8033093B9034093BA03509395
:1058A000BB034092B4035092B5036092B60370926A
:1058B000B7036093B0037093B1038093B2039093E6
:1058C000B3030E94275C8CE09BE00E94C25B57C33D
:1058D0008CE09BE00E94525B52C368E273E0CE0111
:1058E00001960E944062CE0101960E943B6247C32E
:1058F0000EEFE0160FEFF00609F4C9C008F092C1F0
:10590000EF2809F094C18091A0039091A103A09188
:10591000A203B091A3038093B80B9093B90BA0930B
:10592000BA0BB093BB0B8091A4039091A503A091F7
:10593000A603B091A7038093BC0B9093BD0BA093DB
:10594000BE0BB093BF0B8091A8039091A903A091C7
:10595000AA03B091AB038093C00B9093C10BA093AB
:10596000C20BB093C30B8091AC039091AD03A09197
:10597000AE03B091AF038093C40B9093C50BA0937B
:10598000C60BB093C70B8CE09BE00E94C95968E13D
:1059900073E0CE0101960E94588520E030E040E29D
:1059A00051E46091C40B7091C50B8091C60B90912E
:1059B000C70B0E9415DE0E9451E3CD5EDC4F798358
:1059C0006883C351D34020E030E040E251E460916D
:1059D000C00B7091C10B8091C20B9091C30B0E94C0
:1059E00015DE0E9451E3C35FDC4F79836883CD509D
:1059F000D34020E030E040E251E46091BC0B709174
:105A0000BD0B8091BE0B9091BF0B0E9415DE0E94D2
:105A100051E3C95FDC4F79836883C750D34020E0EE
:105A200030E040E251E46091B80B7091B90B809185
:105A3000BA0B9091BB0B0E9415DE0E9451E3CF5F21
:105A4000DC4F79836883C150D340BE016F5F7C4FC8
:105A5000CE0101960E948E65BE01695F7C4F0E9457
:105A60008E65BE01635F7C4F0E948E65BE016D5ED8
:105A70007C4F0E948E6561E0CE0101960E941B65FD
:105A800041E06EE48CE09BE00E94D15978C244E092
:105A900068E173E0CE0101960E942885CE0101964F
:105AA0000E94868481110DC060E073E0CE018F5F9B
:105AB0009C4F0E944062CE018F5F9C4F0E943B62D0
:105AC0005EC2CD5EDC4F19821882C351D340C35FE2
:105AD000DC4F19821882CD50D340C95FDC4F198248
